{
  "_format": "hh-sol-artifact-1",
  "contractName": "StorageContract",
  "sourceName": "contracts/StorageContract.sol",
  "abi": [
    {
      "inputs": [
        {
          "internalType": "contract IERC20",
          "name": "_storageToken",
          "type": "address"
        }
      ],
      "stateMutability": "nonpayable",
      "type": "constructor"
    },
    {
      "anonymous": false,
      "inputs": [
        {
          "indexed": true,
          "internalType": "uint256",
          "name": "listingId",
          "type": "uint256"
        },
        {
          "indexed": true,
          "internalType": "uint256",
          "name": "requestId",
          "type": "uint256"
        },
        {
          "indexed": true,
          "internalType": "address",
          "name": "provider",
          "type": "address"
        }
      ],
      "name": "RequestAccepted",
      "type": "event"
    },
    {
      "anonymous": false,
      "inputs": [
        {
          "indexed": true,
          "internalType": "uint256",
          "name": "listingId",
          "type": "uint256"
        },
        {
          "indexed": true,
          "internalType": "uint256",
          "name": "requestId",
          "type": "uint256"
        },
        {
          "indexed": true,
          "internalType": "address",
          "name": "provider",
          "type": "address"
        }
      ],
      "name": "RequestCompleted",
      "type": "event"
    },
    {
      "anonymous": false,
      "inputs": [
        {
          "indexed": true,
          "internalType": "uint256",
          "name": "listingId",
          "type": "uint256"
        },
        {
          "indexed": true,
          "internalType": "uint256",
          "name": "requestId",
          "type": "uint256"
        },
        {
          "indexed": true,
          "internalType": "address",
          "name": "consumer",
          "type": "address"
        },
        {
          "indexed": false,
          "internalType": "uint256",
          "name": "duration",
          "type": "uint256"
        }
      ],
      "name": "RequestCreated",
      "type": "event"
    },
    {
      "anonymous": false,
      "inputs": [
        {
          "indexed": true,
          "internalType": "uint256",
          "name": "listingId",
          "type": "uint256"
        },
        {
          "indexed": true,
          "internalType": "address",
          "name": "provider",
          "type": "address"
        },
        {
          "indexed": false,
          "internalType": "uint256",
          "name": "storageSize",
          "type": "uint256"
        },
        {
          "indexed": false,
          "internalType": "uint256",
          "name": "pricePerDay",
          "type": "uint256"
        }
      ],
      "name": "StorageListed",
      "type": "event"
    },
    {
      "inputs": [],
      "name": "INITIAL_TOKEN_AMOUNT",
      "outputs": [
        {
          "internalType": "uint256",
          "name": "",
          "type": "uint256"
        }
      ],
      "stateMutability": "view",
      "type": "function"
    },
    {
      "inputs": [
        {
          "internalType": "uint256",
          "name": "listingId",
          "type": "uint256"
        },
        {
          "internalType": "uint256",
          "name": "requestId",
          "type": "uint256"
        }
      ],
      "name": "acceptRequest",
      "outputs": [],
      "stateMutability": "nonpayable",
      "type": "function"
    },
    {
      "inputs": [
        {
          "internalType": "uint256",
          "name": "listingId",
          "type": "uint256"
        },
        {
          "internalType": "uint256",
          "name": "requestId",
          "type": "uint256"
        }
      ],
      "name": "completeRequest",
      "outputs": [],
      "stateMutability": "nonpayable",
      "type": "function"
    },
    {
      "inputs": [
        {
          "internalType": "address",
          "name": "",
          "type": "address"
        },
        {
          "internalType": "uint256",
          "name": "",
          "type": "uint256"
        }
      ],
      "name": "consumerRequests",
      "outputs": [
        {
          "internalType": "uint256",
          "name": "",
          "type": "uint256"
        }
      ],
      "stateMutability": "view",
      "type": "function"
    },
    {
      "inputs": [
        {
          "internalType": "uint256",
          "name": "listingId",
          "type": "uint256"
        },
        {
          "internalType": "uint256",
          "name": "duration",
          "type": "uint256"
        }
      ],
      "name": "createRequest",
      "outputs": [],
      "stateMutability": "nonpayable",
      "type": "function"
    },
    {
      "inputs": [
        {
          "internalType": "address",
          "name": "consumer",
          "type": "address"
        }
      ],
      "name": "getConsumerRequests",
      "outputs": [
        {
          "internalType": "uint256[]",
          "name": "",
          "type": "uint256[]"
        }
      ],
      "stateMutability": "view",
      "type": "function"
    },
    {
      "inputs": [
        {
          "internalType": "address",
          "name": "provider",
          "type": "address"
        }
      ],
      "name": "getProviderListings",
      "outputs": [
        {
          "internalType": "uint256[]",
          "name": "",
          "type": "uint256[]"
        }
      ],
      "stateMutability": "view",
      "type": "function"
    },
    {
      "inputs": [
        {
          "internalType": "address",
          "name": "user",
          "type": "address"
        }
      ],
      "name": "grantInitialTokens",
      "outputs": [],
      "stateMutability": "nonpayable",
      "type": "function"
    },
    {
      "inputs": [
        {
          "internalType": "address",
          "name": "",
          "type": "address"
        }
      ],
      "name": "hasReceivedTokens",
      "outputs": [
        {
          "internalType": "bool",
          "name": "",
          "type": "bool"
        }
      ],
      "stateMutability": "view",
      "type": "function"
    },
    {
      "inputs": [
        {
          "internalType": "uint256",
          "name": "storageSize",
          "type": "uint256"
        },
        {
          "internalType": "uint256",
          "name": "pricePerDay",
          "type": "uint256"
        }
      ],
      "name": "listStorage",
      "outputs": [],
      "stateMutability": "nonpayable",
      "type": "function"
    },
    {
      "inputs": [],
      "name": "listingIdCounter",
      "outputs": [
        {
          "internalType": "uint256",
          "name": "",
          "type": "uint256"
        }
      ],
      "stateMutability": "view",
      "type": "function"
    },
    {
      "inputs": [
        {
          "internalType": "uint256",
          "name": "",
          "type": "uint256"
        }
      ],
      "name": "listings",
      "outputs": [
        {
          "internalType": "address",
          "name": "provider",
          "type": "address"
        },
        {
          "internalType": "address",
          "name": "purchasedBy",
          "type": "address"
        },
        {
          "internalType": "uint256",
          "name": "storageSize",
          "type": "uint256"
        },
        {
          "internalType": "uint256",
          "name": "pricePerDay",
          "type": "uint256"
        },
        {
          "internalType": "bool",
          "name": "available",
          "type": "bool"
        }
      ],
      "stateMutability": "view",
      "type": "function"
    },
    {
      "inputs": [],
      "name": "owner",
      "outputs": [
        {
          "internalType": "address",
          "name": "",
          "type": "address"
        }
      ],
      "stateMutability": "view",
      "type": "function"
    },
    {
      "inputs": [
        {
          "internalType": "address",
          "name": "",
          "type": "address"
        },
        {
          "internalType": "uint256",
          "name": "",
          "type": "uint256"
        }
      ],
      "name": "providerListings",
      "outputs": [
        {
          "internalType": "uint256",
          "name": "",
          "type": "uint256"
        }
      ],
      "stateMutability": "view",
      "type": "function"
    },
    {
      "inputs": [],
      "name": "requestIdCounter",
      "outputs": [
        {
          "internalType": "uint256",
          "name": "",
          "type": "uint256"
        }
      ],
      "stateMutability": "view",
      "type": "function"
    },
    {
      "inputs": [
        {
          "internalType": "uint256",
          "name": "",
          "type": "uint256"
        },
        {
          "internalType": "uint256",
          "name": "",
          "type": "uint256"
        }
      ],
      "name": "requests",
      "outputs": [
        {
          "internalType": "address",
          "name": "consumer",
          "type": "address"
        },
        {
          "internalType": "uint256",
          "name": "duration",
          "type": "uint256"
        },
        {
          "internalType": "bool",
          "name": "accepted",
          "type": "bool"
        },
        {
          "internalType": "bool",
          "name": "completed",
          "type": "bool"
        },
        {
          "internalType": "uint256",
          "name": "startTime",
          "type": "uint256"
        },
        {
          "internalType": "uint256",
          "name": "price",
          "type": "uint256"
        }
      ],
      "stateMutability": "view",
      "type": "function"
    },
    {
      "inputs": [],
      "name": "storageToken",
      "outputs": [
        {
          "internalType": "contract IERC20",
          "name": "",
          "type": "address"
        }
      ],
      "stateMutability": "view",
      "type": "function"
    }
  ],
  "bytecode": "0x608060405234801561001057600080fd5b50604051611e7b380380611e7b8339818101604052810190610032919061012e565b806000806101000a81548173ffffffffffffffffffffffffffffffffffffffff021916908373ffffffffffffffffffffffffffffffffffffffff16021790555033600360006101000a81548173ffffffffffffffffffffffffffffffffffffffff021916908373ffffffffffffffffffffffffffffffffffffffff1602179055505061015b565b600080fd5b600073ffffffffffffffffffffffffffffffffffffffff82169050919050565b60006100e9826100be565b9050919050565b60006100fb826100de565b9050919050565b61010b816100f0565b811461011657600080fd5b50565b60008151905061012881610102565b92915050565b600060208284031215610144576101436100b9565b5b600061015284828501610119565b91505092915050565b611d118061016a6000396000f3fe608060405234801561001057600080fd5b506004361061010b5760003560e01c806363c6ded3116100a25780638db5888a116100715780638db5888a146102cc5780639089add8146102ea578063de6738881461031f578063de74e57b1461033b578063fa48f38e1461036f5761010b565b806363c6ded31461024657806373d4c2561461026257806380ad37a0146102925780638da5cb5b146102ae5761010b565b806336ce26f7116100de57806336ce26f7146101ac57806337c5c31b146101dc578063562ec7b5146101fa578063628dd5b1146102165761010b565b806317ae867a14610110578063231701e9146101405780632765a5de1461015e57806327e734431461017c575b600080fd5b61012a60048036038101906101259190611315565b61038b565b604051610137919061135d565b60405180910390f35b6101486103ab565b6040516101559190611391565b60405180910390f35b6101666103b1565b6040516101739190611391565b60405180910390f35b610196600480360381019061019191906113d8565b6103bf565b6040516101a39190611391565b60405180910390f35b6101c660048036038101906101c191906113d8565b6103f0565b6040516101d39190611391565b60405180910390f35b6101e4610421565b6040516101f19190611477565b60405180910390f35b610214600480360381019061020f9190611315565b610445565b005b610230600480360381019061022b9190611315565b6105c4565b60405161023d9190611550565b60405180910390f35b610260600480360381019061025b9190611572565b61065b565b005b61027c60048036038101906102779190611315565b6109a6565b6040516102899190611550565b60405180910390f35b6102ac60048036038101906102a79190611572565b610a3d565b005b6102b6610c45565b6040516102c391906115c1565b60405180910390f35b6102d4610c6b565b6040516102e19190611391565b60405180910390f35b61030460048036038101906102ff9190611572565b610c71565b604051610316969594939291906115dc565b60405180910390f35b61033960048036038101906103349190611572565b610cf4565b005b6103556004803603810190610350919061163d565b610f0c565b60405161036695949392919061166a565b60405180910390f35b61038960048036038101906103849190611572565b610f8f565b005b60046020528060005260406000206000915054906101000a900460ff1681565b60015481565b69021e19e0c9bab240000081565b600860205281600052604060002081815481106103db57600080fd5b90600052602060002001600091509150505481565b6007602052816000526040600020818154811061040c57600080fd5b90600052602060002001600091509150505481565b60008054906101000a900473ffffffffffffffffffffffffffffffffffffffff1681565b600460008273ffffffffffffffffffffffffffffffffffffffff1673ffffffffffffffffffffffffffffffffffffffff16815260200190815260200160002060009054906101000a900460ff16156104d2576040517f08c379a00000000000000000000000000000000000000000000000000000000081526004016104c990611740565b60405180910390fd5b6001600460008373ffffffffffffffffffffffffffffffffffffffff1673ffffffffffffffffffffffffffffffffffffffff16815260200190815260200160002060006101000a81548160ff02191690831515021790555060008054906101000a900473ffffffffffffffffffffffffffffffffffffffff1673ffffffffffffffffffffffffffffffffffffffff1663f0dda65c8269021e19e0c9bab24000006040518363ffffffff1660e01b815260040161058f929190611760565b600060405180830381600087803b1580156105a957600080fd5b505af11580156105bd573d6000803e3d6000fd5b5050505050565b6060600760008373ffffffffffffffffffffffffffffffffffffffff1673ffffffffffffffffffffffffffffffffffffffff16815260200190815260200160002080548060200260200160405190810160405280929190818152602001828054801561064f57602002820191906000526020600020905b81548152602001906001019080831161063b575b50505050509050919050565b60006005600084815260200190815260200160002090508060040160009054906101000a900460ff166106c3576040517f08c379a00000000000000000000000000000000000000000000000000000000081526004016106ba906117d5565b60405180910390fd5b60008282600301546106d59190611824565b905060008054906101000a900473ffffffffffffffffffffffffffffffffffffffff1673ffffffffffffffffffffffffffffffffffffffff166323b872dd3330846040518463ffffffff1660e01b815260040161073493929190611866565b6020604051808303816000875af1158015610753573d6000803e3d6000fd5b505050506040513d601f19601f8201168201806040525081019061077791906118c9565b6107b6576040517f08c379a00000000000000000000000000000000000000000000000000000000081526004016107ad90611942565b60405180910390fd5b600260008154809291906107c990611962565b91905055506040518060c001604052803373ffffffffffffffffffffffffffffffffffffffff1681526020018481526020016000151581526020016000151581526020016000815260200182815250600660008681526020019081526020016000206000600254815260200190815260200160002060008201518160000160006101000a81548173ffffffffffffffffffffffffffffffffffffffff021916908373ffffffffffffffffffffffffffffffffffffffff1602179055506020820151816001015560408201518160020160006101000a81548160ff02191690831515021790555060608201518160020160016101000a81548160ff0219169083151502179055506080820151816003015560a08201518160040155905050600860003373ffffffffffffffffffffffffffffffffffffffff1673ffffffffffffffffffffffffffffffffffffffff16815260200190815260200160002060025490806001815401808255809150506001900390600052602060002001600090919091909150553373ffffffffffffffffffffffffffffffffffffffff16600254857f84d53118259dd61386d5f2d40ea401e6f35d831e04ec37f7d424660886bfb11d866040516109989190611391565b60405180910390a450505050565b6060600860008373ffffffffffffffffffffffffffffffffffffffff1673ffffffffffffffffffffffffffffffffffffffff168152602001908152602001600020805480602002602001604051908101604052809291908181526020018280548015610a3157602002820191906000526020600020905b815481526020019060010190808311610a1d575b50505050509050919050565b60016000815480929190610a5090611962565b91905055506040518060a001604052803373ffffffffffffffffffffffffffffffffffffffff168152602001600073ffffffffffffffffffffffffffffffffffffffff1681526020018381526020018281526020016001151581525060056000600154815260200190815260200160002060008201518160000160006101000a81548173ffffffffffffffffffffffffffffffffffffffff021916908373ffffffffffffffffffffffffffffffffffffffff16021790555060208201518160010160006101000a81548173ffffffffffffffffffffffffffffffffffffffff021916908373ffffffffffffffffffffffffffffffffffffffff160217905550604082015181600201556060820151816003015560808201518160040160006101000a81548160ff021916908315150217905550905050600760003373ffffffffffffffffffffffffffffffffffffffff1673ffffffffffffffffffffffffffffffffffffffff16815260200190815260200160002060015490806001815401808255809150506001900390600052602060002001600090919091909150553373ffffffffffffffffffffffffffffffffffffffff166001547f1fd2a2e1d5e824d4725fd80eda37b5ed96870badd6cdabea9b71cc6ecb40329c8484604051610c399291906119aa565b60405180910390a35050565b600360009054906101000a900473ffffffffffffffffffffffffffffffffffffffff1681565b60025481565b6006602052816000526040600020602052806000526040600020600091509150508060000160009054906101000a900473ffffffffffffffffffffffffffffffffffffffff16908060010154908060020160009054906101000a900460ff16908060020160019054906101000a900460ff16908060030154908060040154905086565b6000600560008481526020019081526020016000209050600060066000858152602001908152602001600020600084815260200190815260200160002090503373ffffffffffffffffffffffffffffffffffffffff168260000160009054906101000a900473ffffffffffffffffffffffffffffffffffffffff1673ffffffffffffffffffffffffffffffffffffffff1614610dc5576040517f08c379a0000000000000000000000000000000000000000000000000000000008152600401610dbc90611a1f565b60405180910390fd5b8060020160009054906101000a900460ff1615610e17576040517f08c379a0000000000000000000000000000000000000000000000000000000008152600401610e0e90611a8b565b60405180910390fd5b60018160020160006101000a81548160ff02191690831515021790555042816003018190555060008260040160006101000a81548160ff0219169083151502179055508060000160009054906101000a900473ffffffffffffffffffffffffffffffffffffffff168260010160006101000a81548173ffffffffffffffffffffffffffffffffffffffff021916908373ffffffffffffffffffffffffffffffffffffffff1602179055503373ffffffffffffffffffffffffffffffffffffffff1683857f27cf05be19dbaff9fa73ac0fd6adb73f65b99e817f000fd258d532f0a0d77c9f60405160405180910390a450505050565b60056020528060005260406000206000915090508060000160009054906101000a900473ffffffffffffffffffffffffffffffffffffffff16908060010160009054906101000a900473ffffffffffffffffffffffffffffffffffffffff16908060020154908060030154908060040160009054906101000a900460ff16905085565b600060066000848152602001908152602001600020600083815260200190815260200160002090503373ffffffffffffffffffffffffffffffffffffffff168160000160009054906101000a900473ffffffffffffffffffffffffffffffffffffffff1673ffffffffffffffffffffffffffffffffffffffff1614611049576040517f08c379a000000000000000000000000000000000000000000000000000000000815260040161104090611b1d565b60405180910390fd5b8060020160009054906101000a900460ff1661109a576040517f08c379a000000000000000000000000000000000000000000000000000000000815260040161109190611b89565b60405180910390fd5b6201518081600101546110ad9190611824565b81600301546110bc9190611ba9565b4210156110fe576040517f08c379a00000000000000000000000000000000000000000000000000000000081526004016110f590611c4f565b60405180910390fd5b60018160020160016101000a81548160ff02191690831515021790555060008054906101000a900473ffffffffffffffffffffffffffffffffffffffff1673ffffffffffffffffffffffffffffffffffffffff1663a9059cbb6005600086815260200190815260200160002060000160009054906101000a900473ffffffffffffffffffffffffffffffffffffffff1683600401546040518363ffffffff1660e01b81526004016111b0929190611760565b6020604051808303816000875af11580156111cf573d6000803e3d6000fd5b505050506040513d601f19601f820116820180604052508101906111f391906118c9565b611232576040517f08c379a000000000000000000000000000000000000000000000000000000000815260040161122990611cbb565b60405180910390fd5b6005600084815260200190815260200160002060000160009054906101000a900473ffffffffffffffffffffffffffffffffffffffff1673ffffffffffffffffffffffffffffffffffffffff1682847fec982730287d313582b5c56b20be0ede3eec42bdf83d89ec4fd94430679ef83160405160405180910390a4505050565b600080fd5b600073ffffffffffffffffffffffffffffffffffffffff82169050919050565b60006112e2826112b7565b9050919050565b6112f2816112d7565b81146112fd57600080fd5b50565b60008135905061130f816112e9565b92915050565b60006020828403121561132b5761132a6112b2565b5b600061133984828501611300565b91505092915050565b60008115159050919050565b61135781611342565b82525050565b6000602082019050611372600083018461134e565b92915050565b6000819050919050565b61138b81611378565b82525050565b60006020820190506113a66000830184611382565b92915050565b6113b581611378565b81146113c057600080fd5b50565b6000813590506113d2816113ac565b92915050565b600080604083850312156113ef576113ee6112b2565b5b60006113fd85828601611300565b925050602061140e858286016113c3565b9150509250929050565b6000819050919050565b600061143d611438611433846112b7565b611418565b6112b7565b9050919050565b600061144f82611422565b9050919050565b600061146182611444565b9050919050565b61147181611456565b82525050565b600060208201905061148c6000830184611468565b92915050565b600081519050919050565b600082825260208201905092915050565b6000819050602082019050919050565b6114c781611378565b82525050565b60006114d983836114be565b60208301905092915050565b6000602082019050919050565b60006114fd82611492565b611507818561149d565b9350611512836114ae565b8060005b8381101561154357815161152a88826114cd565b9750611535836114e5565b925050600181019050611516565b5085935050505092915050565b6000602082019050818103600083015261156a81846114f2565b905092915050565b60008060408385031215611589576115886112b2565b5b6000611597858286016113c3565b92505060206115a8858286016113c3565b9150509250929050565b6115bb816112d7565b82525050565b60006020820190506115d660008301846115b2565b92915050565b600060c0820190506115f160008301896115b2565b6115fe6020830188611382565b61160b604083018761134e565b611618606083018661134e565b6116256080830185611382565b61163260a0830184611382565b979650505050505050565b600060208284031215611653576116526112b2565b5b6000611661848285016113c3565b91505092915050565b600060a08201905061167f60008301886115b2565b61168c60208301876115b2565b6116996040830186611382565b6116a66060830185611382565b6116b3608083018461134e565b9695505050505050565b600082825260208201905092915050565b7f557365722068617320616c726561647920726563656976656420696e6974696160008201527f6c20746f6b656e73000000000000000000000000000000000000000000000000602082015250565b600061172a6028836116bd565b9150611735826116ce565b604082019050919050565b600060208201905081810360008301526117598161171d565b9050919050565b600060408201905061177560008301856115b2565b6117826020830184611382565b9392505050565b7f53746f72616765206e6f7420617661696c61626c650000000000000000000000600082015250565b60006117bf6015836116bd565b91506117ca82611789565b602082019050919050565b600060208201905081810360008301526117ee816117b2565b9050919050565b7f4e487b7100000000000000000000000000000000000000000000000000000000600052601160045260246000fd5b600061182f82611378565b915061183a83611378565b925082820261184881611378565b9150828204841483151761185f5761185e6117f5565b5b5092915050565b600060608201905061187b60008301866115b2565b61188860208301856115b2565b6118956040830184611382565b949350505050565b6118a681611342565b81146118b157600080fd5b50565b6000815190506118c38161189d565b92915050565b6000602082840312156118df576118de6112b2565b5b60006118ed848285016118b4565b91505092915050565b7f546f6b656e207472616e73666572206661696c65640000000000000000000000600082015250565b600061192c6015836116bd565b9150611937826118f6565b602082019050919050565b6000602082019050818103600083015261195b8161191f565b9050919050565b600061196d82611378565b91507fffffffffffffffffffffffffffffffffffffffffffffffffffffffffffffffff820361199f5761199e6117f5565b5b600182019050919050565b60006040820190506119bf6000830185611382565b6119cc6020830184611382565b9392505050565b7f4f6e6c792070726f76696465722063616e206163636570742072657175657374600082015250565b6000611a096020836116bd565b9150611a14826119d3565b602082019050919050565b60006020820190508181036000830152611a38816119fc565b9050919050565b7f5265717565737420616c72656164792061636365707465640000000000000000600082015250565b6000611a756018836116bd565b9150611a8082611a3f565b602082019050919050565b60006020820190508181036000830152611aa481611a68565b9050919050565b7f4f6e6c7920636f6e73756d65722063616e20636f6d706c65746520726571756560008201527f7374000000000000000000000000000000000000000000000000000000000000602082015250565b6000611b076022836116bd565b9150611b1282611aab565b604082019050919050565b60006020820190508181036000830152611b3681611afa565b9050919050565b7f52657175657374206e6f74206163636570746564207965740000000000000000600082015250565b6000611b736018836116bd565b9150611b7e82611b3d565b602082019050919050565b60006020820190508181036000830152611ba281611b66565b9050919050565b6000611bb482611378565b9150611bbf83611378565b9250828201905080821115611bd757611bd66117f5565b5b92915050565b7f52657175657374206475726174696f6e206e6f742079657420636f6d706c657460008201527f6564000000000000000000000000000000000000000000000000000000000000602082015250565b6000611c396022836116bd565b9150611c4482611bdd565b604082019050919050565b60006020820190508181036000830152611c6881611c2c565b9050919050565b7f5061796d656e74207472616e73666572206661696c6564000000000000000000600082015250565b6000611ca56017836116bd565b9150611cb082611c6f565b602082019050919050565b60006020820190508181036000830152611cd481611c98565b905091905056fea2646970667358221220db5540f71972abb9ea8603205ebe8774145567c2418597010232dc8987483bcf64736f6c634300081b0033",
  "linkReferences": {},
  "deployedLinkReferences": {}
}